{
  "transactions": [
    {
      "hash": "0x19306e1389468ac30ab1a6497333bf909ae1b82923e02d81c6835c84bf84c46c",
      "transactionType": "CALL",
      "contractName": "PlatformToken",
      "contractAddress": "0xeceff35fe011694dfcea93e97bba60d2feec2253",
      "function": "transfer(address,uint256)",
      "arguments": [
        "0x7E5F4552091A69125d5DfCb7b8C2659029395Bdf",
        "100000000000000000000"
      ],
      "transaction": {
        "from": "0x6cc2753524b3d63203f001ab1cf19f2b525e76b7",
        "to": "0xeceff35fe011694dfcea93e97bba60d2feec2253",
        "gas": "0x1265d",
        "value": "0x0",
        "input": "0xa9059cbb0000000000000000000000007e5f4552091a69125d5dfcb7b8c2659029395bdf0000000000000000000000000000000000000000000000056bc75e2d63100000",
        "nonce": "0x81",
        "chainId": "0xaa36a7"
      },
      "additionalContracts": [],
      "isFixedGasLimit": false
    },
    {
      "hash": "0x288cb4b88ef766d8174b168be132bbeda1397443adc70b1dfc5b5c1b24fd1f5b",
      "transactionType": "CALL",
      "contractName": "PlatformToken",
      "contractAddress": "0xeceff35fe011694dfcea93e97bba60d2feec2253",
      "function": "transfer(address,uint256)",
      "arguments": [
        "0x2B5AD5c4795c026514f8317c7a215E218DcCD6cF",
        "100000000000000000000"
      ],
      "transaction": {
        "from": "0x6cc2753524b3d63203f001ab1cf19f2b525e76b7",
        "to": "0xeceff35fe011694dfcea93e97bba60d2feec2253",
        "gas": "0x1265d",
        "value": "0x0",
        "input": "0xa9059cbb0000000000000000000000002b5ad5c4795c026514f8317c7a215e218dccd6cf0000000000000000000000000000000000000000000000056bc75e2d63100000",
        "nonce": "0x82",
        "chainId": "0xaa36a7"
      },
      "additionalContracts": [],
      "isFixedGasLimit": false
    },
    {
      "hash": "0x6c86c88c68c846cb128e6d3955e81aced4f144e443f188dc313ace8e28daa82e",
      "transactionType": "CALL",
      "contractName": "PlatformToken",
      "contractAddress": "0xeceff35fe011694dfcea93e97bba60d2feec2253",
      "function": "transfer(address,uint256)",
      "arguments": [
        "0x6813Eb9362372EEF6200f3b1dbC3f819671cBA69",
        "100000000000000000000"
      ],
      "transaction": {
        "from": "0x6cc2753524b3d63203f001ab1cf19f2b525e76b7",
        "to": "0xeceff35fe011694dfcea93e97bba60d2feec2253",
        "gas": "0x1379d",
        "value": "0x0",
        "input": "0xa9059cbb0000000000000000000000006813eb9362372eef6200f3b1dbc3f819671cba690000000000000000000000000000000000000000000000056bc75e2d63100000",
        "nonce": "0x83",
        "chainId": "0xaa36a7"
      },
      "additionalContracts": [],
      "isFixedGasLimit": false
    }
  ],
  "receipts": [
    {
      "status": "0x1",
      "cumulativeGasUsed": "0x86d28b",
      "logs": [
        {
          "address": "0xeceff35fe011694dfcea93e97bba60d2feec2253",
          "topics": [
            "0xddf252ad1be2c89b69c2b068fc378daa952ba7f163c4a11628f55a4df523b3ef",
            "0x0000000000000000000000006cc2753524b3d63203f001ab1cf19f2b525e76b7",
            "0x0000000000000000000000007e5f4552091a69125d5dfcb7b8c2659029395bdf"
          ],
          "data": "0x0000000000000000000000000000000000000000000000056bc75e2d63100000",
          "blockHash": "0xa13d53bf80ffc3fa655ab5320438fb3e634f74f861962e9d89db9e126bb6fa2f",
          "blockNumber": "0x8a9e71",
          "blockTimestamp": "0x68b0be7c",
          "transactionHash": "0x19306e1389468ac30ab1a6497333bf909ae1b82923e02d81c6835c84bf84c46c",
          "transactionIndex": "0x4e",
          "logIndex": "0x95",
          "removed": false
        }
      ],
      "logsBloom": "0x08000000000000001004000000000000000000000000820000000000000000000000000000000000000000000000000000000000000000000000000000000000000000000000000000000008000000000000000000000000000000000000000000000000000000000000000000000000000000000000000000000010004000000000000000000000000000000000000000000000000000000000000000000000200000000000000000000000000000000400000000000000000000000000000000000002000000000000000000000000000000000000000000000000000000000000000000000800000000000000000000000000000000000000000000000000",
      "type": "0x2",
      "transactionHash": "0x19306e1389468ac30ab1a6497333bf909ae1b82923e02d81c6835c84bf84c46c",
      "transactionIndex": "0x4e",
      "blockHash": "0xa13d53bf80ffc3fa655ab5320438fb3e634f74f861962e9d89db9e126bb6fa2f",
      "blockNumber": "0x8a9e71",
      "gasUsed": "0xd51e",
      "effectiveGasPrice": "0xfadf5",
      "from": "0x6cc2753524b3d63203f001ab1cf19f2b525e76b7",
      "to": "0xeceff35fe011694dfcea93e97bba60d2feec2253",
      "contractAddress": null
    },
    {
      "status": "0x1",
      "cumulativeGasUsed": "0x87a7a9",
      "logs": [
        {
          "address": "0xeceff35fe011694dfcea93e97bba60d2feec2253",
          "topics": [
            "0xddf252ad1be2c89b69c2b068fc378daa952ba7f163c4a11628f55a4df523b3ef",
            "0x0000000000000000000000006cc2753524b3d63203f001ab1cf19f2b525e76b7",
            "0x0000000000000000000000002b5ad5c4795c026514f8317c7a215e218dccd6cf"
          ],
          "data": "0x0000000000000000000000000000000000000000000000056bc75e2d63100000",
          "blockHash": "0xa13d53bf80ffc3fa655ab5320438fb3e634f74f861962e9d89db9e126bb6fa2f",
          "blockNumber": "0x8a9e71",
          "blockTimestamp": "0x68b0be7c",
          "transactionHash": "0x288cb4b88ef766d8174b168be132bbeda1397443adc70b1dfc5b5c1b24fd1f5b",
          "transactionIndex": "0x4f",
          "logIndex": "0x96",
          "removed": false
        }
      ],
      "logsBloom": "0x00000000000000000004000000000000000000000000820000000000000000000000000000000000000000000000000004000000000000000000000000000000000000000000000000000008000000000000000000000000000000000000000000000000000000000000000000000000000000000000000000000010004000008000400000000000000000000000000000000000000000000000000000000000200000000000000000000000000000000400000000000000000000000000000000000002000000000000000000000000000000000000000000000000000000000000000000000000000000000000000000000000000000000000000000000000",
      "type": "0x2",
      "transactionHash": "0x288cb4b88ef766d8174b168be132bbeda1397443adc70b1dfc5b5c1b24fd1f5b",
      "transactionIndex": "0x4f",
      "blockHash": "0xa13d53bf80ffc3fa655ab5320438fb3e634f74f861962e9d89db9e126bb6fa2f",
      "blockNumber": "0x8a9e71",
      "gasUsed": "0xd51e",
      "effectiveGasPrice": "0xfadf5",
      "from": "0x6cc2753524b3d63203f001ab1cf19f2b525e76b7",
      "to": "0xeceff35fe011694dfcea93e97bba60d2feec2253",
      "contractAddress": null
    },
    {
      "status": "0x1",
      "cumulativeGasUsed": "0x887cbb",
      "logs": [
        {
          "address": "0xeceff35fe011694dfcea93e97bba60d2feec2253",
          "topics": [
            "0xddf252ad1be2c89b69c2b068fc378daa952ba7f163c4a11628f55a4df523b3ef",
            "0x0000000000000000000000006cc2753524b3d63203f001ab1cf19f2b525e76b7",
            "0x0000000000000000000000006813eb9362372eef6200f3b1dbc3f819671cba69"
          ],
          "data": "0x0000000000000000000000000000000000000000000000056bc75e2d63100000",
          "blockHash": "0xa13d53bf80ffc3fa655ab5320438fb3e634f74f861962e9d89db9e126bb6fa2f",
          "blockNumber": "0x8a9e71",
          "blockTimestamp": "0x68b0be7c",
          "transactionHash": "0x6c86c88c68c846cb128e6d3955e81aced4f144e443f188dc313ace8e28daa82e",
          "transactionIndex": "0x50",
          "logIndex": "0x97",
          "removed": false
        }
      ],
      "logsBloom": "0x00000000000000100004000000000000000000000000820000000100000000000000000000000000000000000000000000000000000000000000000000000000000000000000000000000008000000000000000000000000000000000000000000000000000000000000000000000000000000000000000000000010004000000000000000000000000000000000000000000000000000000000000000000000200000000000000000000000000000000400000000000000000000000000000000000002000000000000000000000000000000000000000000000000000000000000000000000000000000000000800000000000000000000000000000000000",
      "type": "0x2",
      "transactionHash": "0x6c86c88c68c846cb128e6d3955e81aced4f144e443f188dc313ace8e28daa82e",
      "transactionIndex": "0x50",
      "blockHash": "0xa13d53bf80ffc3fa655ab5320438fb3e634f74f861962e9d89db9e126bb6fa2f",
      "blockNumber": "0x8a9e71",
      "gasUsed": "0xd512",
      "effectiveGasPrice": "0xfadf5",
      "from": "0x6cc2753524b3d63203f001ab1cf19f2b525e76b7",
      "to": "0xeceff35fe011694dfcea93e97bba60d2feec2253",
      "contractAddress": null
    }
  ],
  "libraries": [],
  "pending": [],
  "returns": {},
  "timestamp": 1756413565,
  "chain": 11155111,
  "commit": "dd2c07d"
}